:100000000C9418010C9440010C9440010C94400194
:100010000C9440010C9440010C9440010C9440015C
:100020000C9440010C9440010C9440010C9440014C
:100030000C9440010C9440010C9440010C9440013C
:100040000C9408110C9440010C9478110C945211EA
:100050000C9440010C9440010C9440010C9440011C
:100060000C94AA110C94400100407A10F35A00A09D
:10007000724E18090010A5D4E80000E87648170071
:1000800000E40B54020000CA9A3B000000E1F505B1
:10009000000080969800000040420F000000A086FB
:1000A00001000000102700000000E803000000002D
:1000B0006400000000000A000000000001000000D1
:1000C00000002C76D888DC674F0823DFC1DFAE59EB
:1000D000E1B1B796E5E3E453C63AE651997696E87E
:1000E000E6C28426EB898C9B62ED407C6FFCEFBC02
:1000F0009C9F40F2BAA56FA5F490055A2AF75C932D
:100100006B6CF9676DC11BFCE0E40D47FEF520E662
:10011000B500D0ED902E0300943577050080841E45
:10012000080000204E0A000000C80C333333330FA0
:10013000986E12831141EF8D2114893BE65516CF3D
:10014000FEE6DB18D1844B381BF77C1D901DA4BB49
:10015000E424203284725E228100C9F124ECA1E5FE
:100160003D275B505442203233206B656C2E20318A
:100170005D0064616E2074686177696E6700416C30
:10018000617420436F6F6C696E67003E2054686134
:1001900077696E6720284229202020003E20436F87
:1001A0006F6C696E67202841292020200050696CFF
:1001B0006968204D6F6465203A2020202000447536
:1001C00072617369004D656E6974005375687500DE
:1001D000DF430000000000240027002A0000000088
:1001E00000250028002B0000000000230026002925
:1001F00000040404040404040402020202020203D0
:1002000003030303030102040810204080010204D9
:10021000081020010204081020000000080002015C
:100220000000030407000000000000000000C912E5
:1002300011241FBECFEFD8E0DEBFCDBF24E0AEE873
:10024000B2E001C01D92A13BB207E1F712E0A0E0CD
:10025000B1E0EEE0F4E402C005900D92AE38B107D3
:10026000D9F711E0C8E1D1E004C02197FE010E9456
:100270006C1DC731D107C9F70E94CA130C9405221F
:100280000C94000096E0899FD0011124A85CBB4F1C
:1002900090967C936E935F9791E091969C93919743
:1002A000E091A504F091A6049091A404992339F05B
:1002B000309751F0811108C080915404099430970F
:1002C00019F05C968C91FACF08950895833081F0EF
:1002D00028F4813099F08230A9F008958730A9F090
:1002E0008830C9F08430B1F4809180008F7D03C0E4
:1002F000809180008F7780938000089584B58F77F8
:1003000084BD089584B58F7DFBCF8091B0008F7739
:100310008093B00008958091B0008F7DF9CFCF9386
:10032000DF93282F30E0F901E75EFD4F8491F9015A
:10033000EB5FFD4FD491F901EF50FE4FC491CC23F8
:10034000A1F081110E946601EC2FF0E0EE0FFF1F7B
:10035000E951FE4FA591B491EC91ED2381E090E03D
:1003600009F480E0DF91CF91089580E090E0FACF2A
:100370001F93CF93DF93282F30E0F901E75EFD4F05
:100380008491F901EB5FFD4FD491F901EF50FE4FDD
:10039000C491CC23A9F0162F81110E946601EC2F85
:1003A000F0E0EE0FFF1FE352FE4FA591B4918FB71F
:1003B000F894EC91111108C0D095DE23DC938FBF27
:1003C000DF91CF911F910895DE2BF8CFCF93DF936C
:1003D00090E0FC01EB5FFD4F24918F509E4FFC019C
:1003E00084918823C9F090E0880F991FFC01ED5299
:1003F000FE4FA591B491FC01E352FE4FC591D491FB
:1004000061110DC09FB7F8948C91209582238C9335
:100410008881282328839FBFDF91CF910895623080
:1004200051F49FB7F8943C91822F809583238C934D
:10043000E8812E2BEFCF8FB7F894EC912E2B2C93D5
:100440008FBFEACF3FB7F8948091E8029091E9021C
:10045000A091EA02B091EB0226B5A89B05C02F3F00
:1004600019F00196A11DB11D3FBFBA2FA92F982FDA
:100470008827BC01CD01620F711D811D911D42E0D5
:10048000660F771F881F991F4A95D1F708958F929D
:100490009F92AF92BF92CF92DF92EF92FF924B0169
:1004A0005C010E9422026B017C010E9422026C19F5
:1004B0007D098E099F09683E734081059105A8F367
:1004C00021E0821A9108A108B10888EEC80E83E0E5
:1004D000D81EE11CF11C81149104A104B10429F778
:1004E000FF90EF90DF90CF90BF90AF909F908F9054
:1004F00008952FB7F8946091E4027091E50280911D
:10050000E6029091E7022FBF08950F931F93CF93B8
:10051000DF93C82FD62F86E0C89FF0011124E85C36
:10052000FB4F11A2878D90A181309105F1F058F019
:1005300082309105F1F1039709F440C0DF91CF912A
:100540001F910F9108956623C9F361E070E08C2F2D
:100550000E9442010E94790260939004709391047A
:100560008093920490939304E9CF0E9479020091C2
:100570009004109191042091920430919304AB0166
:10058000BC01401B510B620B730B8091A204909134
:10059000A304B0E0A0E084179507A607B70748F4C6
:1005A00062E070E08C2FDF91CF911F910F910C943E
:1005B000420163E070E0D111C1CFF4CF70E060E0A0
:1005C000F1CFCF92DF92EF92FF92CF93DF936B0147
:1005D0007C01EA010E9479022091F9033091FA032B
:1005E000232B59F02091090430910A04F0E0E0E057
:1005F000232BC9F4E9E0F4E002C0E9EFF3E0D18392
:10060000C083138212826483758386839783C08636
:10061000D186E286F38681E090E0A0E0B0E08487B6
:100620009587A687B787CF01DF91CF91FF90EF9095
:10063000DF90CF900895089508950895AF92BF92E6
:10064000CF92DF92EF92FF920F931F93CF93DF939E
:100650006C017B018B01040F151FEB015E01AE18CD
:10066000BF08C017D10759F06991D601ED91FC91EF
:100670000190F081E02DC6010995892B79F7C5011C
:10068000DF91CF911F910F91FF90EF90DF90CF906E
:10069000BF90AF900895FC01538D448D252F30E01D
:1006A000842F90E0821B930B541710F0CF9608957F
:1006B00001970895FC01918D828D981761F0A28DAC
:1006C000AE0FBF2FB11D5D968C91928D9F5F9F7372
:1006D000928F90E008958FEF9FEF0895FC01918D28
:1006E000828D981731F0828DE80FF11D858D90E095
:1006F00008958FEF9FEF0895FC01918D228D892F32
:1007000090E0805C9F4F821B91098F739927089519
:100710008CE593E00E947C0321E0892B09F420E022
:10072000822F089580E090E0892B29F00E948803B1
:1007300081110C9400000895FC01A48DA80FB92F1D
:10074000B11DA35ABF4F2C91848D90E001968F73F9
:100750009927848FA689B7892C93A089B1898C9118
:10076000837080648C93938D848D981306C0028867
:10077000F389E02D80818F7D80830895EF92FF9231
:100780000F931F93CF93DF93EC0181E0888F9B8DB4
:100790008C8D98131AC0E889F989808185FF15C06E
:1007A0009FB7F894EE89FF896083E889F989808191
:1007B0008370806480839FBF81E090E0DF91CF9160
:1007C0001F910F91FF90EF900895F62E0B8D10E082
:1007D0000F5F1F4F0F731127E02E8C8D8E110CC0F1
:1007E0000FB607FCFACFE889F989808185FFF5CF3C
:1007F000CE010E949C03F1CFEB8DEC0FFD2FF11D7C
:10080000E35AFF4FF0829FB7F8940B8FEA89FB8978
:1008100080818062CFCFCF93DF93EC01888D8823D6
:10082000B9F0AA89BB89E889F9898C9185FD03C053
:10083000808186FD0DC00FB607FCF7CF8C9185FF38
:10084000F2CF808185FFEDCFCE010E949C03E9CFDE
:10085000DF91CF910895AF92BF92CF92DF92EF9246
:10086000FF921F93CF93DF937C0110E0C7E0D0E0AD
:1008700083E2C82ED12CAA24A394B12C60E0F70106
:1008800080810E94B801C6010197F1F7F7018181CB
:100890000E948F01892B39F0C5010C2E01C0880FF1
:1008A0000A94EAF7182B61E0F70180810E94B801F1
:1008B000C6010197F1F7219708F7812FDF91CF91BA
:1008C0001F91FF90EF90DF90CF90BF90AF90089571
:1008D0000F931F93CF93DF938C0160E0FC01828123
:1008E0000E94B80183E290E00197F1F7C8010E94ED
:1008F0002B04C82FD0E0DC2FCC27C8010E942B048A
:10090000C82B61E0F80182810E94B80160E070E0CC
:1009100080EC9FE7C2FD10C083E0D695C7958A950D
:10092000E1F7BE0190E080E00E94E91B20E030E0AA
:1009300040E85EE30E944A1CDF91CF911F910F9126
:1009400008952091B102260F3327331F213231053C
:10095000ECF420913203FC0190E080E0243069F057
:1009600082E00895A091B1022191AC014F565D4FF4
:10097000A40FB52FB11D2C930196861798F3809183
:10098000B102680F6093B10280E0089581E008959C
:100990001092320381E08093310310920C0361E0E6
:1009A00082E10E94B80161E083E10E94B801E9EBB5
:1009B000F0E080818E7F808380818D7F808388E4DA
:1009C0008093B80085E48093BC000895CF93DF93B3
:1009D00091E0909390028823B9F0C091B800D09133
:1009E000BA008091BC008A7B8093BC0060E082E109
:1009F0000E94B80160E083E10E94B8010E94C8042F
:100A0000D093BA00C093B800DF91CF9108958F9230
:100A10009F92AF92BF92CF92DF92EF92FF920F938D
:100A20001F93CF93DF93D0915B03D13208F0D7C0EF
:100A3000182FC0915A030E9422026B017C01809101
:100A4000320381116BC082E0809332031093310333
:100A50008FEF8093300310922F03D0932E03AAE3DD
:100A6000B3E0EEE0F3E080E0D81391C010920D0304
:100A700080910D03CC0FC82BC0930D0380910C0304
:100A8000813009F088C010920C030E9422026B0191
:100A90007C0180910D038093BB0080913403909181
:100AA0003503A0913603B0913703892B8A2B8B2B0A
:100AB000A1F00E942202009134031091350320918D
:100AC0003603309137036C197D098E099F0906178B
:100AD00017072807390708F442C08091BC0083FD3E
:100AE000D8CF85EC8093BC000E9422026B017C0170
:100AF00080913203823009F450C0809130038F3FDF
:100B000009F46FC080913003803209F46CC0809189
:100B10003003803309F469C084E026C08091340337
:100B200090913503A0913603B0913703892B8A2B1E
:100B30008B2B09F484CF0E94220280903403909082
:100B40003503A0903603B09037036C197D098E09E8
:100B50009F0986169706A806B90608F070CF8091FF
:100B600033030E94E60485E01092390310925B0380
:100B700010923803DF91CF911F910F91FF90EF906A
:100B8000DF90CF90BF90AF909F908F9008959D91F0
:100B900091938F5F69CF85EEA5CF809134039091BB
:100BA0003503A0913603B0913703892B8A2B8B2B09
:100BB00009F49ECF0E942202009134031091350364
:100BC00020913603309137036C197D098E099F09F6
:100BD000061717072807390708F08ACFC0CF81E02A
:100BE000C3CF80E0C1CF82E0BFCF83E0BDCFCF9243
:100BF000DF92EF92FF920F931F93CF93DF93D82F43
:100C0000C62F613208F098C00E9422026B017C015D
:100C10008091320381116BC081E080933203809315
:100C200031039FEF9093300310922F039C0F90930A
:100C30002E0380930D0380910D03DD0FD82BD093ED
:100C40000D0380910C03813009F078C010920C03E1
:100C50000E9422026B017C0180910D038093BB00F6
:100C60008091340390913503A0913603B0913703FE
:100C7000892B8A2B8B2BA1F00E9422020091340336
:100C80001091350320913603309137036C197D099B
:100C90008E099F09061717072807390708F448C067
:100CA0008091BC0083FDD8CF85EC8093BC000E946E
:100CB00022026B017C0180913203813009F440C033
:100CC00080912F038C1710F4C0912F03EEE0F3E016
:100CD000ACEEB2E080E08C1355C08C2FDF91CF9149
:100CE0001F910F91FF90EF90DF90CF90089580912A
:100CF000340390913503A0913603B0913703892BCB
:100D00008A2B8B2B09F484CF0E942202009134039A
:100D10001091350320913603309137036C197D090A
:100D20008E099F09061717072807390708F070CFA3
:100D3000809133030E94E604C0E0CFCF85EEB5CFAB
:100D40008091340390913503A0913603B09137031D
:100D5000892B8A2B8B2B09F4AECF0E9422020091A3
:100D600034031091350320913603309137036C1909
:100D70007D098E099F09061717072807390708F00C
:100D80009ACFD6CF91919D938F5FA5CF0895E09193
:100D9000D9028091D802E81730F4F0E0E451FD4F19
:100DA000808190E008958FEF9FEF08959091D90290
:100DB0008091D8022FEF3FEF981748F4E92FF0E029
:100DC000E451FD4F208130E09F5F9093D902C9012B
:100DD00008958091D8029091D902891B990B0895AA
:100DE000CF92DF92EF92FF920F931F93CF93DF93F7
:100DF0007C01CB018A0120913803222389F0EB0189
:100E00006B01C40ED51ECC15DD0569F06991D701C3
:100E1000ED91FC910190F081E02DC7010995F3CF90
:100E2000642F0E94A104C801DF91CF911F910F91FF
:100E3000FF90EF90DF90CF900895CF93DF931F92B4
:100E4000CDB7DEB76983209138032223F9F02091D2
:100E50005B03203258F021E030E0FC013383228331
:100E600090E080E00F90DF91CF9108958091390359
:100E7000E82FF0E0E65CFC4F998190838F5F8093D0
:100E8000390380935B0381E090E0ECCF61E0CE0119
:100E900001960E94A104F7CFFC01248131E0309338
:100EA000380320935A031092390310925B03848510
:100EB000682B8CE294E00E941D0781E00C940705EA
:100EC00090E080E00895862F0C948F01862F642F88
:100ED0000C94B801862F642F0C94E601EF92FF92D8
:100EE0000F931F93CF93DF93EC018B017C0183E77A
:100EF000E80EF11CD7018D919C91FE01E159FF4F45
:100F0000208131E03093380320935A031092390343
:100F100010925B03DC01ED91FC910190F081E02DDA
:100F20000995FE01E059FF4F8081823058F0F701AA
:100F300080819181DC01ED91FC910190F081E02DA7
:100F4000612F099581E00E940705CF58DF4F088384
:100F50001983DF91CF911F910F91FF90EF9008952A
:100F600021E030E002C0220F331F6A95E2F7FC0156
:100F7000EF58FF4F60817181442341F0262B372BBE
:100F800031832083608171810C946E0720953095A8
:100F900026233723F5CF2091570430915804213070
:100FA000310529F48A3219F481E08093DE02089534
:100FB000CF93C1E0C8276C2F87E00E94B8016C2F47
:100FC00086E00E94B8016C2F85E00E94B8016C2F6A
:100FD00084E00E94B8016C2F83E0CF910C94B8019B
:100FE000FC0101900020E9F73197AF01481B590B34
:100FF000BC018FE194E00C941E03CF92DF92EF923C
:10100000FF920F931F93CF93DF93EC0181E090E069
:101010007C0102C0EE0CFF1C6A95E2F76E0180E7CE
:10102000C80ED11CD6016C91613208F060E2FE015D
:10103000E159FF4F80810E94F7051092D9028093F9
:10104000D802CD58DF4F88819981DC01ED91FC9168
:101050000284F385E02D09958C01F60180818230B0
:1010600060F088819981DC01ED91FC910284F38527
:10107000E02D099520E0022B182B0E211F2181E085
:1010800090E00E151F0511F090E080E0DF91CF9108
:101090001F910F91FF90EF90DF90CF9008956F9286
:1010A0007F928F929F92AF92BF92CF92DF92EF92F8
:1010B000FF920F931F93CF93DF9381E08093A4045B
:1010C0000E94790200919404109195042091960455
:1010D00030919704AB01BC01401B510B620B730BA9
:1010E0008091A0049091A104B0E0A0E0841795073E
:1010F000A607B70708F0FAC0712C812C912C540177
:10110000839480919F04781608F050C0E72CF12C4E
:10111000E0919C04F0919D04EE0DFF1D40E0608184
:1011200088E394E00E94B00795018401072C04C075
:10113000000F111F221F331F0A94D2F76801009578
:101140001095612C80919E04681608F5C62DD0E09C
:10115000E0919A04F0919B04EC0FFD1F608188E3FD
:1011600094E00E94FD072496CC0FDD1FC85CDB4F86
:10117000892B41F4888199818C299D2999838883C1
:101180006394E0CF8881998180239123F7CF809168
:101190009C0490919D04E80EF91E41E0F7016081E6
:1011A00088E394E00E94B0077394ABCF28E3C22E8B
:1011B00024E0D22EE6018FEF9FEF2F8D38A1232B55
:1011C00021F41C8E9E8F8D8F19A22696F4E0C437D1
:1011D000DF0799F710E096E0B92E80919E0418176A
:1011E00008F052C000E0E12EF12CEE0CFF1CC7010C
:1011F000805C9B4F7C0120919F04021708F042C045
:10120000F70160817181002E02C0769567950A947E
:10121000E2F7129F90011124200F311DE8E3F4E062
:1012200080E0458D568D2417350709F463C08F5F24
:1012300036968A30B1F760FF23C0E8E3F4E090E02F
:1012400080E0448D411117C0E0919804F091990419
:10125000E20FF31F4081B89EF001B99EF00D1124FA
:10126000E85CFB4F448F368F258F10A2178E61E00C
:101270000E94850205C0019636968A30910509F7CD
:101280000F5FB9CF1F5FA9CF10E0F60181A18111D7
:10129000182FF6E0CF0ED11CCC15DD05B1F70E945A
:1012A00079026093940470939504809396049093CC
:1012B00097041123D9F0809159048823B9F08091C3
:1012C000570490915804019789F480915404DF9158
:1012D000CF911F910F91FF90EF90DF90CF90BF9033
:1012E000AF909F908F907F906F9008951092A4047C
:1012F00080E0EDCF6170BCCF0F931F93CF938C0133
:10130000C62F0E944C076C2F6460C8010E944C07D6
:101310006C2F6B7FC8010E944C0783EC90E0019713
:10132000F1F7CF911F910F9108950F931F93CF93D2
:10133000DF938C01D62FC42F607F642B0E947C0921
:1013400080E1D89FB00111246C2BC801DF91CF91AF
:101350001F910F910C947C0940E0682F8FE194E07D
:101360000C949509CF93DF93CDB7DEB728970FB6CE
:10137000F894DEBF0FBECDBF98E0E5E4F1E0DE01FA
:10138000119601900D929A95E1F790912704961786
:1013900010F46FEF690F70E0660F771F21E030E007
:1013A0002C0F3D1F620F731FFB019081890F806816
:1013B00028960FB6F894DEBF0FBECDBFDF91CF9158
:1013C0000C94AC09CF93C82F682F80E00E94B2091B
:1013D0008FE891E00E94F0076C2F80E0CF910C9491
:1013E000B209623008F084500C94B209CF93DF93B5
:1013F000EA010E94F1094C815D81688179818FE168
:1014000094E0DF91CF910C941E03EFE1F4E086812C
:101410008E7F868388600C94AC0981E00E94AC09C1
:101420008BE39FE10197F1F780912804882321F055
:1014300060E080E00C94B209089541E00E949509B3
:1014400081E090E008950F931F93CF93DF938B017A
:1014500028E0829FC001112480640E94AC09E80149
:10146000085F1F4F69918FE194E00E941D0AC01729
:10147000D107C1F7DF91CF911F910F9108950F937D
:101480001F93CF93DF938C01EB01FC01808191814D
:101490000097E1F06881798161157105A9F04281B9
:1014A00053812C813D814217530770F00E945D1FCC
:1014B0008C819D81F801958384831D821C82DF913C
:1014C000CF911F910F9108950E940E1E88819981DE
:1014D000F801918380838A819B81938382838C81AD
:1014E0009D8195838483198218821B821A82E5CF9D
:1014F000CF93DF93EC0188819981009711F00E94CE
:101500000E1E198218821D821C821B821A82DF9194
:10151000CF910895FC0180819181009711F00C9486
:101520000E1E08950F931F93CF93DF93EC018881D4
:101530009981009759F02A813B812617370730F0AF
:1015400081E0DF91CF911F910F9108958B016F5F23
:101550007F4F0E94971E009759F0998388831B83C1
:101560000A832C813D81232B59F7FC011082E8CF9F
:1015700080E0E7CFEF92FF920F931F93CF93DF931B
:101580006115710541F480E0DF91CF911F910F91BA
:10159000FF90EF90089541155105B1F07B01EC01EA
:1015A0000C811D81040F151FB8010E94920A882327
:1015B00051F3288139818C819D81B701820F931F5E
:1015C0000E945D1F1D830C8381E0DECFCF93DF93EC
:1015D000EC01FB0101900020E9F73197AF01461BB8
:1015E000570B0E94BA0A811103C0CE010E94780AEB
:1015F000CE01DF91CF910895CF93DF93EC01FB01F2
:1016000044815581608171810E94BA0A811103C0B1
:10161000CE010E94780ACE01DF91CF910895EF921A
:10162000FF920F931F93CF93DF93EC017B018A010D
:10163000BA010E94920A81110BC0CE010E94780A61
:10164000CE01DF91CF911F910F91FF90EF90089500
:101650001D830C83B701888199810E945D1FF0CFA3
:10166000FB0101900020E9F73197AF01461B570BB2
:101670000C940F0B0F931F93CF93DF93CDB7DEB76F
:1016800062970FB6F894DEBF0FBECDBF8C01CB01C1
:10169000F8011182108213821282158214824AE0AC
:1016A000BE016F5F7F4F0E946319BE016F5F7F4F66
:1016B000C8010E94300B62960FB6F894DEBF0FBED1
:1016C000CDBFDF91CF911F910F910895FB01DC01F8
:1016D00011961C921E9213961C921E9212971596AA
:1016E0001C921E9214978617970749F060817181AA
:1016F0006115710521F0448155810C940F0B0895FB
:101700000F931F93CF93DF9300D000D000D0CDB7BD
:10171000DEB78C01BC01CE0101960E94660BF80178
:101720009481AE014F5F5F4F63E08FE0891B0E94A1
:10173000F609CE0101960E948A0A61E08FE194E0E9
:101740000E941D0A64EF71E080E090E00E94470271
:1017500083E00E94E20926960FB6F894DEBF0FBE22
:10176000CDBFDF91CF911F910F910895FC011182A0
:10177000108213821282158214826115710551F054
:10178000FB0101900020E9F73197AF01461B570B91
:101790000C940F0B0895CF93DF9300D000D000D0AE
:1017A000CDB7DEB760EA71E0CE0101960E94B60BBC
:1017B000AE014F5F5F4F61E080E00E94F609CE010D
:1017C00001960E948A0A61EB71E0CE0101960E94A7
:1017D000B60BAE014F5F5F4F62E080E00E94F609FA
:1017E000CE0101960E948A0A26960FB6F894DEBFB3
:1017F0000FBECDBFDF91CF910895EF92FF920F936F
:101800001F93CF93DF93EC018B01198218821B8207
:101810001A821D821C82CB010E945A197C01BC01D4
:10182000CE010E94920A811109C0CE01DF91CF91B1
:101830001F910F91FF90EF900C94780AFD82EC823B
:10184000B80188819981DF91CF911F910F91FF900D
:10185000EF900C9453191F93CF93DF9300D000D0D7
:1018600000D0CDB7DEB76EE771E0CE0101960E94E1
:10187000FD0BAE014F5F5F4F60E081E00E94F60913
:10188000CE0101960E948A0A62E771E0CE010196BC
:101890000E94FD0BAE014F5F5F4F61E082E00E944E
:1018A000F609CE0101960E948A0A62E671E0CE0135
:1018B00001960E94FD0BAE014F5F5F4F62E080E03A
:1018C0000E94F609CE0101960E948A0A63E080E038
:1018D0000E94F10964E670E080E090E00E94470217
:1018E00010E160E08FE194E00E941D0A64E670E080
:1018F00080E090E00E944702115099F70E940D0A83
:1019000026960FB6F894DEBF0FBECDBFDF91CF9104
:101910001F91089585ED8093BC00809134039091D0
:101920003503A0913603B09137030796A11DB11D71
:1019300023E0B695A795979587952A95D1F720919D
:10194000BC0024FD03C0109232030895409134037B
:10195000509135036091360370913703452B462B28
:10196000472B69F30097A105B10541F02AE22A95BA
:10197000F1F700C00197A109B109E1CF80913303CC
:101980000C94E6040F931F93CF93DF93CDB7DEB78C
:101990002E970FB6F894DEBF0FBECDBF00918E021A
:1019A00010918F028091DB0281113AC0011511055F
:1019B00051F56CE971E0CE0101960E94B60BAE01C3
:1019C0004F5F5F4F63E08AE00E94F609CE01019607
:1019D0000E948A0A80918E0290918F02019664E0A3
:1019E00070E00E94441D90938F0280938E0281E0EC
:1019F0002E960FB6F894DEBF0FBECDBFDF91CF910C
:101A00001F910F91089562EC71E0CE0101960E9442
:101A1000B60BAE014F5F5F4F63E089E0800FD4CF1C
:101A2000012BC1F68091DC029091DD026CE370E045
:101A30000E94441D9F938F937F936F9384EC91E05A
:101A40009F938F938E010F5F1F4F1F930F930E94E1
:101A5000641FB801CE0109960E94B60BAE01475F24
:101A60005F4F63E086E00E94F609CE0109960E946E
:101A70008A0A8091DC029091DD020FB6F894DEBFF5
:101A80000FBECDBF181619060CF440C01092FA0311
:101A90001092F9031092FC031092FB031092FD03C5
:101AA0001092FE031092FF031092000410920104A2
:101AB0001092020410920304109204041092050480
:101AC00010920604109207041092080410920A045F
:101AD0001092090410920C0410920B0410920D0441
:101AE00010920E0410920F04109210041092110420
:101AF0001092120410921304109214041092150400
:101B000010921604109217041092180401979093E3
:101B1000DD028093DC025ECF0F931F93CF93DF93A0
:101B2000CDB7DEB764970FB6F894DEBF0FBECDBF5A
:101B30008091DB028E010F5F1F4F811118C06EEC88
:101B400071E0C8010E94B60BA80163E080E00E942A
:101B5000F609C8010E948A0A64960FB6F894DEBF9F
:101B60000FBECDBFDF91CF911F910F91089580914E
:101B7000DC029091DD026CE370E00E94441D9F93B3
:101B80008F937F936F9384EC91E09F938F931F9338
:101B90000F930E94641FB801CE0109960E94B60BF4
:101BA0006FED71E0C8010E94B60BBE01675F7F4F09
:101BB000C8010E94FC0A66EE71E00E94E60ABC01C0
:101BC000CE010F960E94660BAE01415F5F4F63E04E
:101BD00080E00E94F609CE010F960E948A0AC80191
:101BE0000E948A0ACE0109960E948A0A63E084E074
:101BF0000E94F10962E08FE194E00E941D0A0FB695
:101C0000F894DEBF0FBECDBFA7CFAF92BF92CF92E9
:101C1000DF92EF92FF920F931F93CF93DF93CDB795
:101C2000DEB72C970FB6F894DEBF0FBECDBF8C0188
:101C30007B016FE971E0CE0107960E94B60B6DE95A
:101C400071E0CE0101960E94B60BAE014F5F5F4F6F
:101C500062E082E00E94F609CE0101960E948A0AA3
:101C600062E082E00E94F10980912504982F916042
:101C70009093250489600E94AC098091DE02811155
:101C80008FC00E944F08D82E082E000C990BC097C9
:101C90000A97B0F48B859C85029790F4D9821A82BA
:101CA00041E050E0BE016F5F7F4FCE0107960E947A
:101CB000BA0A41E06D2D8FE194E00E949509DDCFD5
:101CC00083E4D8121DC02B853C85C901019782177A
:101CD000930738F4EF81F885E80FF91F9C878B870D
:101CE00010828B8562E08E5F0E94F1098EE991E09F
:101CF0000E94F0078B8562E08E5F0E94F109BDCFE4
:101D0000E3E2DE12BACF0E94050AF701C080D1805B
:101D1000A280B3808F819885009781F10E942C1951
:101D2000A616B7061CF06C157D0564F56CEE71E027
:101D3000CE0101960E94B60BCE0101960E94800B47
:101D4000CE0101960E948A0AB701C8010E94050EC1
:101D5000CE0107960E948A0AC8012C960FB6F89405
:101D6000DEBF0FBECDBFDF91CF911F910F91FF90CE
:101D7000EF90DF90CF90BF90AF90089560E070E05B
:101D8000CB01CECFF801118210821382128215820C
:101D90001482BE01695F7F4FC8010E943F0AD8CFFD
:101DA0000E94050A6FE971E0C8010E94B60BD0CF0E
:101DB000AF92BF92CF92DF92EF92FF920F931F9359
:101DC000CF93DF93CDB7DEB762970FB6F894DEBF3F
:101DD0000FBECDBF5C016B018A017901BA01CE0152
:101DE0000D960E943A0BB501CE0101960E94660B3A
:101DF00064EF71E0CE0101960E94E60ABC01CE01BB
:101E000007960E94660BAE01495F5F4F61E080E07C
:101E10000E94F609CE0107960E948A0ACE01019619
:101E20000E948A0A67EF71E0CE0101960E94B60B0C
:101E3000B601CE0101960E94FC0ABC01CE010796B4
:101E40000E94660BAE01495F5F4F62E080E00E9436
:101E5000F609CE0107960E948A0ACE0101960E94D9
:101E60008A0ABE01635F7F4FCE0101960E94660B16
:101E7000AE014F5F5F4F62E082E00E94F609CE0143
:101E800001960E948A0A8091DE0281111CC00E9484
:101E90004F08833471F18332B1F76EEF71E0CE01F8
:101EA00001960E94B60BCE0101960E94800BCE01D6
:101EB00001960E948A0A8D859E85009709F441C08B
:101EC0000E942C198B01CE010D960E948A0AC8012E
:101ED00062960FB6F894DEBF0FBECDBFDF91CF91F3
:101EE0001F910F91FF90EF90DF90CF90BF90AF9038
:101EF0000895B701CE0101960E94050EBE016F5FE5
:101F00007F4FCE010D960E943F0ACE0101960E949E
:101F10008A0A8091DE02882309F4BFCF1092DE0284
:101F2000B801CE0101960E943A0BBE016F5F7F4F50
:101F3000CE010D960E943F0ACE0101960E948A0AA8
:101F400090CF60E070E0CB01BDCF8F929F92AF92B7
:101F5000BF92EF92FF920F931F93CF93DF93CDB772
:101F6000DEB7A7970FB6F894DEBF0FBECDBF7C01DA
:101F70004A015B0120E030E040E251E4CB01B401D2
:101F80000E94E41B21E087FD22E01BA21AA21DA2F1
:101F90001CA21FA21EA242E0420F8E010F5F1F4F24
:101FA000C501B4010E940E190097F1F1BC01CE01E8
:101FB00082960E94300B6FE971E0C7010E94B60B58
:101FC0000EA11FA101151105C9F00430110510F073
:101FD00004E010E0EAA1FBA1E00FF11FB080108245
:101FE0006AA17BA1C7016115710519F10E94300B2F
:101FF0008AA19BA1080F191FF801B082CE01829619
:102000000E948A0AC701A7960FB6F894DEBF0FBEDA
:10201000CDBFDF91CF911F910F91FF90EF90BF90B7
:10202000AF909F908F900895CE0182960E94780A7B
:10203000C2CF0E94780ADCCF4F925F926F927F925C
:102040008F929F92AF92BF92CF92DF92EF92FF92C8
:102050000F931F93CF93DF9300D000D000D0CDB764
:10206000DEB78091DF029091E0020091250110918E
:102070002601019721F000912301109124018CE1A8
:1020800094E00E9468044B015C0189E194E00E94A5
:1020900068046B017C018091DA02811122C0B501D4
:1020A000A401CE0101960E94A50FAE014F5F5F4FC4
:1020B00061E089E00E94F609CE0101960E948A0A39
:1020C000B701A601CE0101960E94A50FAE014F5F98
:1020D0005F4F62E089E00E94F609CE0101960E94FE
:1020E0008A0AB80161507109072E000C880B990B00
:1020F0000E94EB1B4B015C01B8016F5F7F4F072E05
:10210000000C880B990B0E94EB1B2B013C01A701D3
:1021100096010E94E41B87FD22C0A7019601C5011C
:10212000B4010E943F1DA701960118168CF0C3014F
:10213000B2010E94E41B11E087FD12C0A7019601C5
:10214000C501B4010E943F1D181614F511E017C017
:10215000C301B2010E94E41B10E087FF10C010E031
:1021600081E00E94D80761E082E00E94B801A701E7
:102170009601C501B4010E943F1D18163CF480E091
:102180000E94D80760E082E00E94B801112341F16B
:1021900080E00E94D80761E082E00E94B80180914F
:1021A000DB0281111DC081E08093DB028091DF02A0
:1021B0009091E0022091210130912201019721F0BC
:1021C00020911F01309120014CE3429FC001439FA9
:1021D000900D11249093DD028093DC020E948C0DFF
:1021E00081E026960FB6F894DEBF0FBECDBFDF911B
:1021F000CF911F910F91FF90EF90DF90CF90BF9004
:10220000AF909F908F907F906F905F904F900895C8
:102210001F920F920FB60F9211242F933F938F931B
:102220009F93AF93BF938091E4029091E502A091B8
:10223000E602B091E7023091E30223E0230F2D374D
:1022400058F50196A11DB11D2093E3028093E4028D
:102250009093E502A093E602B093E7028091E80232
:102260009091E902A091EA02B091EB020196A11DC2
:10227000B11D8093E8029093E902A093EA02B09323
:10228000EB02BF91AF919F918F913F912F910F9052
:102290000FBE0F901F90189526E8230F0296A11DE0
:1022A000B11DD2CF1F920F920FB60F9211242F9310
:1022B0003F934F935F936F937F938F939F93AF93CE
:1022C000BF93EF93FF938CE593E00E949C03FF91F3
:1022D000EF91BF91AF919F918F917F916F915F919E
:1022E0004F913F912F910F900FBE0F901F90189517
:1022F0001F920F920FB60F9211242F938F939F93DB
:10230000EF93FF93E0916C03F0916D038081E09176
:102310007203F091730382FD1BC09081809175035D
:102320008F5F8F7320917603821741F0E0917503E0
:10233000F0E0E45AFC4F958F80937503FF91EF9185
:102340009F918F912F910F900FBE0F901F90189516
:102350008081F4CF1F920F920FB60F9211242F930A
:102360003F934F935F936F937F938F939F93AF931D
:10237000BF93EF93FF938091B900887F803609F473
:102380004AC0F0F5883209F4A7C018F5803109F485
:102390009BC0B8F4882309F4F9C0883009F494C0CC
:1023A000FF91EF91BF91AF919F918F917F916F912D
:1023B0005F914F913F912F910F900FBE0F901F9003
:1023C0001895883109F488C0803251F78093300322
:1023D00014C0803409F49DC040F48033B9F38833CD
:1023E000F9F68093300385ECB0C0803509F485C0E0
:1023F000883509F496C0883499F60E948A0CD0CFAB
:10240000883909F48CC038F5883729F050F48836BB
:1024100011F0803729F683E0809332031092D302C3
:1024200057C0883809F47BC0803919F0803809F02A
:10243000B7CF8091D302803208F071C0E091D3020F
:1024400081E08E0F8093D3028091BB00F0E0ED54C9
:10245000FD4F80833DC0803B39F0E0F4803A09F4C1
:1024600079C0883A09F09CCF84E0809332031092BF
:10247000B2021092B102E091D602F091D702099512
:102480008091B10281110FC081E08093B10210925E
:10249000910209C0803C09F4A6CF883C09F4A3CF7F
:1024A000883B09F07DCFE091B20281E08E0F8093EE
:1024B000B202F0E0EF56FD4F80818093BB00909117
:1024C000B2028091B10229C080910D038093BB00BC
:1024D00085EC8093BC0064CF90912F0380912E03F4
:1024E000981758F5E0912F0381E08E0F80932F030A
:1024F000F0E0E25FFC4F8081E9CFE0912F0381E0C3
:102500008E0F80932F038091BB00F0E0E25FFC4FC1
:10251000808390912F0380912E039817C8F285E84D
:10252000D8CFE0912F0381E08E0F80932F0380910D
:10253000BB00F0E0E25FFC4F8083809131038111AA
:102540005CCF81E080930C0384EA8093BC001092FE
:10255000320326CF85EC8093BC0010923203809129
:10256000D302803230F4E091D302F0E0ED54FD4F1D
:1025700010826091D30270E0E091D402F091D50214
:1025800083EB92E009951092D3020ACF10923003A8
:1025900034CF1F93CF93DF9310925F0310925E03AB
:1025A00088EE93E0A0E0B0E0809360039093610335
:1025B000A0936203B093630329E531E030935D0398
:1025C00020935C0325EC30E030936903209368038B
:1025D00024EC30E030936B0320936A0320EC30E06E
:1025E00030936D0320936C0321EC30E030936F0344
:1025F00020936E0322EC30E030937103209370033C
:1026000026EC30E03093730320937203109275032D
:1026100010927603109277031092780310922F0491
:1026200010922E048093300490933104A0933204CE
:10263000B09333048BE691E090932D0480932C04A7
:1026400010923A0410923E0410923D0410923F04FE
:10265000E4E5F4E01082148213821582369684E059
:10266000E039F807B9F78BE291E090939B048093EF
:102670009A0487E291E090939D0480939C0484E007
:1026800080939E0480939F042FE231E0309399045D
:10269000209398042AE030E03093A1042093A00412
:1026A00024EF31E03093A3042093A2041092A604F7
:1026B0001092A5041092940410929504109296041E
:1026C000109297041092A40429E831E03093390461
:1026D00020933804C0E2C093A70491E09093A8042B
:1026E0002CE234E03093AC042093AB04109222042B
:1026F000109221042DE731E03093200420931F0431
:102700001092280497E29093230490E19093290477
:1027100080932A0410922B041DE010931C0488E07F
:1027200080931E04DCE0D0931D0461E00E94E6016A
:1027300061E080911C040E94E60160E080911D042C
:102740000E94E60161E080911E040E94B80110938E
:10275000190489E080931B04D0931A0461E00E945D
:10276000E60161E0809119040E94E60160E0809139
:102770001A040E94E60161E080911B040E94B801E6
:10278000E9EFF3E0DF011D92CA95E9F7DF91CF9100
:102790001F910895CF93DF93CDB7DEB768970FB63B
:1027A000F894DEBF0FBECDBF789484B5826084BD3F
:1027B00084B5816084BD85B5826085BD85B5816045
:1027C00085BD80916E00816080936E0010928100C3
:1027D000809181008260809381008091810081607E
:1027E000809381008091800081608093800080913F
:1027F000B10084608093B1008091B00081608093CB
:10280000B00080917A00846080937A0080917A0091
:10281000826080937A0080917A00816080937A0050
:1028200080917A00806880937A001092C100E091D4
:102830006C03F0916D0382E08083E0916803F09176
:1028400069031082E0916A03F0916B038FEC80833F
:1028500010927403E0917003F091710386E080831D
:10286000E0916E03F0916F03808180618083E0913D
:102870006E03F0916F03808188608083E0916E0326
:10288000F0916F03808180688083E0916E03F09106
:102890006F0380818F7D80831092D9021092D802BD
:1028A0001092390310925B030E94C8048BE193E0FD
:1028B0009093D7028093D6028CE193E09093D50257
:1028C0008093D4021092240480912A04823018F05C
:1028D00098E0909324048093270462E370E080E002
:1028E00090E00E94470260912B048FE194E00E94E7
:1028F0004C0768EE73E080E090E00E94470260E3DE
:102900008FE194E00E947C090BE416E4C801019772
:10291000F1F760E38FE194E00E947C09C801019720
:10292000F1F760E38FE194E00E947C0983E592E097
:102930000197F1F760E28FE194E00E947C098091B9
:10294000240480620E94AC0984E0809325048CE01A
:102950000E94AC090E940D0A82E08093260486E062
:102960000E94AC0982E00E94AC098BE39FE10197D1
:10297000F1F788E080932B0460E08FE194E00E94FF
:102980004C0767E171E080E00E94230A6FE071E08C
:1029900081E00E94230A68E071E082E00E94230A3D
:1029A00060E071E083E00E94230A6FEF7FEF88E32D
:1029B00094E00E946E076091A804613208F060E222
:1029C0008091A7040E94F7051092D9028093D80243
:1029D0008091AB049091AC04DC01ED91FC910284F8
:1029E000F385E02D09959093AA048093A904809122
:1029F000A8048230B8F08091AB049091AC04DC0163
:102A0000ED91FC910284F385E02D099520E0382FAB
:102A10008091A9049091AA04822B932B9093AA04ED
:102A20008093A9048BEC97E09093A6048093A5046F
:102A300061E087E00E94E60161E086E00E94E60135
:102A400061E085E00E94E60161E084E00E94E60129
:102A500061E083E00E94E60161E082E00E94E6011D
:102A600061E087E00E94B80161E086E00E94B80161
:102A700061E085E00E94B80161E084E00E94B80155
:102A800061E083E00E94B80161E082E00E94B80149
:102A90000E942B0C8BE3C82E8FE1D82E92E0E92EFA
:102AA000F12CBB24B3948091E1029091E202892B36
:102AB00009F44DC08091DF029091E00262E072E083
:102AC000019711F06AE072E0CE0107960E94B60B02
:102AD00082E00E94AC09C6010197F1F760E08FE146
:102AE00094E00E941D0A60E08FE194E00E941D0ABC
:102AF00060E08FE194E00E941D0A6EE971E0CE0172
:102B000001960E94B60BBE01695F7F4FCE01019610
:102B10000E94FC0A6EE971E00E94E60AFC01448111
:102B20005581608171818FE194E00E941E03CE0186
:102B300001960E948A0A14E060E08FE194E00E940E
:102B40001D0A1150C9F7CE0107960E948A0A80918A
:102B5000E1029091E2028230910509F44DC1BCF589
:102B6000009709F4C3C0019709F409C18091E102FB
:102B70009091E2022091DE02222309F44DC318163F
:102B800019060CF049C301979093E2028093E10289
:102B90008091E1029091E20265E070E00E94441DA4
:102BA0009093E2028093E1021092DE020E94050AF5
:102BB0000E940D0A80E090E0892B09F474CF0E94F6
:102BC0008803882309F46DCF0E9400006ACF833008
:102BD000910509F44EC1049749F61092DD02109256
:102BE000DC021092DB020E94CB0B0E948C0D42ECA7
:102BF0005CE06AEF70E080E090E00E94E1024CE16E
:102C000050E160ED77E080E090E00E94E102809189
:102C1000F9039091FA03892B09F0BBC18091090453
:102C200090910A04892B09F0B4C181E00E94E20965
:102C300082E00E94E20983E00E94E20962E080E013
:102C40000E94F10963E08FE194E00E941D0A8AE38B
:102C500092E00E94F00714E008E06EEE72E080E07F
:102C600090E00E94470210922B0460E08FE194E014
:102C70000E944C076EEE72E080E090E00E944702F6
:102C800000932B0460E08FE194E00E944C07115008
:102C900021F78091DF029091E002019709F0B3C221
:102CA0006CE772E0CE0101960E94B60BAE014F5F59
:102CB0005F4F63E080E00E94F609CE0101960E941A
:102CC0008A0A0E944F088A3209F4A1C28332C9F7E6
:102CD000F092E002E092DF028091E1029091E20244
:102CE00001969093E2028093E10240CF6DEA71E099
:102CF000CE0101960E94FD0BAE014F5F5F4F60E079
:102D000080E00E94F609CE0101960E948A0A6CE9D1
:102D100071E0CE0101960E94FD0BAE014F5F5F4F47
:102D200061E080E00E94F609CE0101960E948A0AC5
:102D30006BE871E0CE0101960E94FD0BAE014F5F82
:102D40005F4F62E080E00E94F609CE0101960E948A
:102D50008A0A8091DE02811109CF0E944F088134D6
:102D600039F481E090E09093E0028093DF02FECEA0
:102D7000823479F7F092E002E092DF02F7CE8091A0
:102D8000DF029091E0020091250110912601019748
:102D900021F0009123011091240160ED71E0CE013A
:102DA00001960E94FD0B6BEC71E0CE0107960E942C
:102DB000FD0B21E531E0A801BE016F5F7F4FCE0121
:102DC00007960E94D80E8C01CE0107960E948A0AAF
:102DD000CE0101960E948A0A8091DF029091E00262
:102DE000019729F41093260100932501BFCE10937B
:102DF000240100932301BACE8091DF029091E0027A
:102E00000091210110912201019721F000911F01F1
:102E10001091200165EC71E0CE0101960E94FD0B3E
:102E20006EEB71E0CE0107960E94FD0B2DE431E0C0
:102E3000A801BE016F5F7F4FCE0107960E94D80E9A
:102E40008C01CE0107960E948A0ACE0101960E944B
:102E50008A0A8091DF029091E002019729F4109391
:102E600022010093210182CE1093200100931F01C3
:102E70007DCE8091DF029091E002609125017091FA
:102E80002601019721F06091230170912401CE0168
:102E900043960E943A0B8091DF029091E00260918C
:102EA000210170912201019721F060911F01709121
:102EB0002001CE010D960E943A0B62E172E0CE0134
:102EC00007960E94B60BBE016D5E7F4FCE0107963E
:102ED0000E94FC0A6DEA71E00E94E60ABC01CE0184
:102EE00001960E94660BAE014F5F5F4F61E080E08C
:102EF0000E94F609CE0101960E948A0ACE01079629
:102F00000E948A0A6CE172E0CE0107960E94B60B1D
:102F1000BE01635F7F4FCE0107960E94FC0A66E206
:102F200072E00E94E60ABC01CE0101960E94660B87
:102F3000AE014F5F5F4F62E080E00E94F609CE0174
:102F400001960E948A0ACE0107960E948A0A69E2C7
:102F500072E0CE0101960E94B60BAE014F5F5F4F4B
:102F600063E080E00E94F609CE0101960E948A0A81
:102F70008091DE02811104C00E944F088332C1F7A4
:102F8000CE010D960E948A0ACE0143960E948A0ABB
:102F9000EDCD09EF13E0D8018D919C91892B09F4B7
:102FA00040C00E9479022B013C01F8018481958187
:102FB000A681B781B301A201481B590B6A0B7B0B99
:102FC00080859185A285B385481759076A077B07D5
:102FD00040F10190F081E02DD80112968D919C91E5
:102FE0000995882359F081E0F80144855585668567
:102FF0007785452B462B472B09F480E0482F50E07E
:1030000070E060E0D8011C964D935D936D937C93C6
:103010001F97882309F451C0F801448255826682C3
:103020007782005F1F4FF4E009311F0708F4B3CF28
:103030000E94790209EF13E0D8018D919C91892BB0
:1030400009F052C0005F1F4FB4E009311B07A0F325
:103050000E9479020E944F088A3209F05EC0809176
:10306000DA02811157C06AE472E0CE0101960E9433
:10307000B60BAE014F5F5F4F61E080E00E94F60942
:10308000CE0101960E948A0A6BE572E0CE0101969C
:103090000E94B60BAE014F5F5F4F62E080E00E947E
:1030A000F609CE0101960E948A0A8091DA028B25E8
:1030B0008093DA021092DE02AACD11961C921E9223
:1030C00013961C921E921297F80114821582168292
:1030D000178218961D921D921D921C921B971486A2
:1030E0001586168617869DCF0E947902F8014480C6
:1030F0005580668077806419750986099709408430
:10310000518462847384641575058605970508F4F7
:1031100099CF9ECF0E94CB0BC8CF833209F077CDD9
:103120008091DA02882309F472CD1092FA0310928A
:10313000F9031092FC031092FB031092FD0310920E
:10314000FE031092FF0310920004109201041092EB
:1031500002041092030410920404109205041092C9
:103160000604109207041092080410920A041092A8
:10317000090410920C0410920B0410920D0410928A
:103180000E0410920F041092100410921104109269
:103190001204109213041092140410921504109249
:1031A000160410921704109218041092DA0283E0A9
:1031B0000E94E2096EEF71E0CE0101960E94B60B0B
:1031C000CE0101960E94800BCE0101960E948A0AD0
:1031D00081E00E94E2096CE672E0CE0101960E9455
:1031E000B60BAE014F5F5F4F62E080E00E94F609D0
:1031F000CE0101960E948A0A60ED77E080E090E0BF
:103200000E94470204CD0E944F088823E1F30E94E8
:103210000D0A0E942B0CAACC0196B6CCEF920F930C
:103220001F93CF93DF93E80134E047FD34E1042E90
:10323000000C550B57FF03C0519541955109E32EE2
:10324000022F242FAE010E949D19CE01DF91CF9154
:103250001F910F91EF9008951F93FC0199278827E4
:10326000BC01E89411911032E9F3193010F01E30CE
:10327000C8F31B3251F01D3249F4689406C00E9415
:103280006E19610F711D811D911D119110531A301E
:10329000B0F33EF490958095709561957F4F8F4F78
:1032A0009F4F1F910895FB01DC0105900D920020B6
:1032B000E1F70895FC0105900020E9F780959095CD
:1032C0008E0F9F1F0895BB274A3031F4992322F4B3
:1032D000BDE2909581959F4F0C948419592F482FEA
:1032E000372F262F660F771F881F991F660F771FAE
:1032F000881F991F620F731F841F951F660F771F0A
:10330000881F991F0895BB27FB015527AA27880FFF
:10331000991FAA1FA41710F0A41B83955051B9F749
:10332000A05DAA3308F0A95DA193009779F7B111C8
:10333000B1931192CB010C94D41BA9E0B0E0E3EA65
:10334000F9E10C940E1D6A01F22EB02E102FFBE352
:10335000AF2EA01608F41BE31F5F012F27E0AE017C
:103360004F5F5F4F0E94FC1ABC018981982F9970B2
:10337000913009F43FC09BE2E1FC04C09E2D9170A6
:10338000E0FC3AC05E2D5071E82FE87083FF46C024
:1033900084E0911101C083E0EF2DE81B8F1508F048
:1033A000E0E0D6018E2F20E2552351F1992329F038
:1033B000D6019C93C60101966C0196012D5F3F4F8B
:1033C000E2FE24C08EE4D6018C9391E411969C9386
:1033D000119712968C93D9018E2F90E281111BC008
:1033E000E20FF32FF11D10828EEF9FEF2996ECE094
:1033F0000C942A1D9DE2C6CF90E2C4CF2D9381503C
:103400008111FCCFCE0ED11CE0E0D0CF8EE6D601EC
:103410008C9391E6DBCF9D938150E0CF482F447091
:1034200082FF3DC084E0911101C083E08F1510F44C
:10343000EF2DE81BD6018E2F20E2552309F19923A9
:1034400029F0D6019C93C60101966C0196012D5F6F
:103450003F4FE2FE1BC089E4D6018C938EE41196A7
:103460008C93119786E412968C93D9018E2F90E25B
:10347000882309F4B5CF9D938150FACF2D938150C5
:103480008111FCCFCE0ED11CE0E0D9CF89E6D60168
:103490008C938EE611968C93119786E6E4CF9B0170
:1034A00077FF02C030E020E0A1E0B0E0911102C05F
:1034B000B0E0A0E0F9013196AE0FBF1F8B2C912C2C
:1034C000BB2009F461C05401EFEFAE1ABE0AAA0D89
:1034D000BB1DFA161B0619F014F04F2D4A1B511193
:1034E00088C0E3FC59C07601A42FB0E2A1114FC0FF
:1034F000C40ED11C992309F45BC040E0D60111969B
:10350000F60190836D01552309F448C0012F060F81
:103510009A81582F507184FF03C0913309F40150F0
:1035200010160CF047C0093008F008E0EEE2FE2E5D
:103530005B01A01AB10885019194819491082F3FF5
:10354000320729F4D601FC92F60131966F01621719
:10355000730794F1021713077CF5DB01A21BB30B71
:10356000AA24A394B12CAC0EBD1EAA0DBB1D1196AE
:103570008C9121503109D601119628153905F4F0A6
:10358000F60180836D01DBCFB12CA12CA0CFF70118
:10359000B1937F01A150AACF9111B0CFD601942F42
:1035A00050E302C05D9391509111FCCFC40ED11C29
:1035B00040E0ACCF01E0BACF80E3DBCF6217730706
:1035C00031F4963388F4953311F4552369F0F601FC
:1035D0008083FD01842F90E2811108C0A40FB11DEA
:1035E0001C9290E080E002CF81E3F1CF9193815073
:1035F000F3CF911183CF8ACF283008F027E033270B
:10360000DA01990F311D87FD916000966105710502
:1036100039F432602E5F3D9330E32A95E1F7089547
:103620009F3F30F080387105610509F03C5F3C5FD9
:103630003D93913008F08068911DDF93CF931F93E5
:103640000F93FF92EF92192F987F9695E92F9695F9
:103650009695E90FFF27EE53FF4F99273327EE2466
:10366000FF24A701E70105900894079428F4360F7A
:10367000E71EF81E491F511D660F771F881F991FEF
:103680000694A1F70590079428F4E70EF81E491F49
:10369000561FC11D770F881F991F661F0694A1F73B
:1036A0000590079428F4F80E491F561FC71FD11D17
:1036B000880F991F661F771F0694A1F7059007943E
:1036C00020F4490F561FC71FD81F990F661F771F79
:1036D000881F0694A9F784911095177041F0D6952C
:1036E000C79557954795F794E7941A95C1F7E8E67B
:1036F000F0E068941590159135916591959105903C
:103700007FE27395E118F10A430B560BC90BD00900
:10371000C0F7E10CF11E431F561FC91FD01D7EF4D8
:10372000703311F48A95E6CFE894015030F0080F19
:103730000AF40027021708F4202F2395022F7A336A
:1037400028F079E37D932A95E9F710C07D932A95B7
:1037500089F6069497956795379517951794E1180C
:10376000F10A430B560BC90BD00998F023957E91B3
:1037700073957A3308F070E37C932013B8F77E9149
:1037800070617D9330F0839571E37D9370E32A95AA
:10379000E1F71124EF90FF900F911F91CF91DF91EE
:1037A000992787FD90950895DC01FC01672F7191A1
:1037B0007723E1F7329704C07C916D937083629117
:1037C000AE17BF07C8F308950E94261C08F481E0D5
:1037D0000895E89409C097FB3EF490958095709504
:1037E00061957F4F8F4F9F4F9923A9F0F92F96E94D
:1037F000BB279395F695879577956795B795F111C2
:10380000F8CFFAF4BB0F11F460FF1BC06F5F7F4F5E
:103810008F4F9F4F16C0882311F096E911C0772370
:1038200021F09EE8872F762F05C0662371F096E879
:10383000862F70E060E02AF09A95660F771F881F48
:10384000DAF7880F9695879597F90895990F0008EC
:10385000550FAA0BE0E8FEEF16161706E807F90762
:10386000C0F012161306E407F50798F0621B730BFD
:10387000840B950B39F40A2661F0232B242B252B7E
:1038800021F408950A2609F4A140A6958FEF811D21
:10389000811D08950E945D1C0C94CE1C0E94C01CCA
:1038A00038F00E94C71C20F0952311F00C94B71C2F
:1038B0000C94BD1C11240C94021D0E94DF1C70F39B
:1038C000959FC1F3950F50E0551F629FF001729FC5
:1038D000BB27F00DB11D639FAA27F00DB11DAA1FD4
:1038E000649F6627B00DA11D661F829F2227B00D21
:1038F000A11D621F739FB00DA11D621F839FA00DAC
:10390000611D221F749F3327A00D611D231F849FFB
:10391000600D211D822F762F6A2F11249F57504052
:103920009AF0F1F088234AF0EE0FFF1FBB1F661FCD
:10393000771F881F91505040A9F79E3F510580F096
:103940000C94B71C0C94021D5F3FE4F3983ED4F333
:10395000869577956795B795F795E7959F5FC1F73A
:10396000FE2B880F911D9695879597F9089597F9E5
:103970009F6780E870E060E008959FEF80EC089515
:1039800000240A941616170618060906089500243E
:103990000A9412161306140605060895092E0394B8
:1039A000000C11F4882352F0BB0F40F4BF2B11F42C
:1039B00060FF04C06F5F7F4F8F4F9F4F089557FD8B
:1039C0009058440F551F59F05F3F71F04795880F8D
:1039D00097FB991F61F09F3F79F087950895121624
:1039E00013061406551FF2CF4695F1DF08C01616D0
:1039F00017061806991FF1CF869571056105089481
:103A00000895E894BB2766277727CB0197F9089597
:103A10002F923F924F925F926F927F928F929F92DE
:103A2000AF92BF92CF92DF92EF92FF920F931F93CC
:103A3000CF93DF93CDB7DEB7CA1BDB0B0FB6F8947D
:103A4000DEBF0FBECDBF09942A88398848885F84BD
:103A50006E847D848C849B84AA84B984C884DF802E
:103A6000EE80FD800C811B81AA81B981CE0FD11D12
:103A70000FB6F894DEBF0FBECDBFED0108950E94D2
:103A8000261C08F48FEF089597FB072E16F4009478
:103A900007D077FD09D00E94581D07FC05D03EF4E1
:103AA000909581959F4F0895709561957F4F0895EA
:103AB000AA1BBB1B51E107C0AA1FBB1FA617B70754
:103AC00010F0A61BB70B881F991F5A95A9F7809570
:103AD0009095BC01CD010895EE0FFF1F0590F49164
:103AE000E02D09940F931F93CF93DF9382309105BC
:103AF00010F482E090E0E091AF04F091B00430E087
:103B000020E0B0E0A0E0309799F42115310509F4E8
:103B10004AC0281B390B24303105D8F58A819B8196
:103B20006115710589F1FB0193838283FE0111C048
:103B3000408151810281138148175907E0F04817ED
:103B4000590799F4109761F012960C9312971396F7
:103B50001C933296CF01DF91CF911F910F91089561
:103B60000093AF041093B004F4CF2115310551F048
:103B70004217530738F0A901DB019A01BD01DF01AB
:103B8000F801C1CFEF01F9CF9093B0048093AF0457
:103B9000CDCFFE01E20FF31F8193919322503109A3
:103BA00039832883D7CF2091AD043091AE04232BE5
:103BB00041F420914101309142013093AE042093B1
:103BC000AD0420913F01309140012115310541F4B0
:103BD0002DB73EB74091430150914401241B350B52
:103BE000E091AD04F091AE04E217F307A0F42E1BB0
:103BF0003F0B2817390778F0AC014E5F5F4F241751
:103C0000350748F04E0F5F1F5093AE044093AD044C
:103C1000819391939FCFF0E0E0E09CCFCF93DF932F
:103C20000097E9F0FC01329713821282A091AF0451
:103C3000B091B004ED0130E020E01097A1F42081B4
:103C40003181820F931F2091AD043091AE0428176B
:103C5000390709F061C0F093AE04E093AD04DF9141
:103C6000CF910895EA01CE17DF07E8F54A815B811D
:103C70009E0141155105B1F7E901FB83EA834991A2
:103C80005991C40FD51FEC17FD0761F48081918114
:103C90000296840F951FE90199838883828193811D
:103CA0009B838A83F0E0E0E012968D919C911397BC
:103CB0000097B9F52D913C911197CD010296820F95
:103CC000931F2091AD043091AE042817390739F6BF
:103CD000309751F51092B0041092AF04B093AE0437
:103CE000A093AD04BCCFD383C28340815181840FA4
:103CF000951FC817D90761F44E5F5F4F888199817E
:103D0000480F591F518340838A819B81938382830B
:103D10002115310509F0B0CFF093B004E093AF0462
:103D20009ECFFD01DC01C0CF13821282D7CFB0E05D
:103D3000A0E0EDE9FEE10C940A1D8C01009751F41E
:103D4000CB010E94721D8C01C801CDB7DEB7E0E146
:103D50000C94261DFC01E60FF71F9C01225031092F
:103D6000E217F30708F49DC0D901CD91DC911197BA
:103D7000C617D70798F0C530D10530F3CE010497A8
:103D80008617970708F3C61BD70B2297C193D193C9
:103D90006D937C93CF010E940E1ED6CF5B01AC1AAF
:103DA000BD0A4C018C0E9D1EA091AF04B091B004D1
:103DB000512C412CF12CE12C109731F58091AD0460
:103DC0009091AE048815990509F05CC04616570617
:103DD00008F058C080913F0190914001009741F454
:103DE0008DB79EB74091430150914401841B950BC0
:103DF000E817F90708F055C0F093AE04E093AD045E
:103E0000F90171836083A0CF8D919C9111971296D7
:103E10006C90129713967C901397A815B90559F5D5
:103E20006C0142E0C40ED11CCA14DB0420F1AC01C9
:103E30004A195B09DA011296159780F06282738243
:103E400051834083D9016D937C93E114F10471F0A7
:103E5000D7011396FC93EE93129776CF22968C0F90
:103E60009D1FF90191838083F301EFCFF093B0049C
:103E7000E093AF0469CF4816590608F42C017D0180
:103E8000D3019ACFCB010E94721D7C01009749F0AB
:103E9000AE01B8010E94541FC8010E940E1E870186
:103EA00053CF10E000E050CFFB01DC0102C00190D5
:103EB0000D9241505040D8F70895FB01DC0101906C
:103EC0000D920020E1F70895AEE0B0E0EAE6FFE1F0
:103ED0000C94161D0D891E8986E08C831A83098334
:103EE0008FEF9FE79E838D83AE01475E5F4F6F89A3
:103EF000788DCE0101960E94871F2F813885020F91
:103F0000131FF80110822E96E4E00C94321DABE0F2
:103F1000B0E0EDE8FFE10C94081D7C013B018A0153
:103F2000FC0117821682838181FFC8C1CE010196F0
:103F30005C01F7019381F30193FD859193FF8191DA
:103F40003F01882309F453C1853239F493FD8591EB
:103F500093FF81913F01853229F4B70190E00E94DF
:103F60007721E7CF912C212C312CFFE1F31538F08C
:103F70008B3211F190F4803209F1833229F137FC50
:103F80003CC020ED280F2A3050F536FE20C08AE0D4
:103F9000989E200D1124922E06C08D3291F0803310
:103FA00071F7689430F8F30193FD859193FF819147
:103FB0003F018111DACF21C0689431F8689432F85A
:103FC000F2CF689433F8EFCF689434F8ECCFEAE09E
:103FD0002E9E200D1124222E689435F8E4CF8E32C7
:103FE00029F436FC04C1689436F8DDCF8C3619F418
:103FF000689437F8D8CF8836B1F2982F9F7D9554C2
:104000009330E0F08336A1F18337C1F1833509F0B5
:1040100063C02801F2E04F0E511CF801C080D1802E
:10402000692D70E036FC02C06FEF7FEFC6010E9481
:1040300061214C01689437F882010AC00C5F1F4F60
:10404000FFE3F98388248394912C6501E89437F881
:1040500033FE2DC0522C8114910471F5552009F4C2
:1040600068CFB70180E290E00E9477215A94F6CFA2
:10407000F801808189830E5F1F4FE4CF2801F2E0B1
:104080004F0E511CF801C080D180692D70E036FCC4
:1040900002C06FEF7FEFC6010E946C214C018201CC
:1040A000D5CFB70180E290E00E9477212A942814AE
:1040B000190409F0B0F7CECFF60137FC859137FE31
:1040C00081916F01B70190E00E94772151105A94BD
:1040D000F1E08F1A9108BFCF843619F0893609F0C4
:1040E00077C0F80137FE6BC0608171818281938156
:1040F0000C5F1F4FF32DFF763F2E97FF09C0909561
:104100008095709561957F4F8F4F9F4F689437F8DA
:104110002AE030E0A5010E94A721C82ECA188C2CE5
:10412000432C36FE0CC0E89440F8C91440F434FE29
:1041300005C032FC03C0F32DFE7E4F2E892C44FEB9
:1041400095C0FE01EC0DF11D8081803309F087C020
:10415000242D297E422E842D8870582E43FC95C034
:1041600040FE8FC09C2C821418F42C0C922C9818B2
:1041700044FE91C0B70180E390E00E94772142FEA7
:1041800009C088E790E041FE02C088E590E0B701F1
:104190000E947721C91408F48AC0CA94D12C9FEFD9
:1041A000C91AD90ACA0CDB1CF60182916F01B7014A
:1041B00090E00E947721AC14BD04B1F74FCF60812D
:1041C0007181072E000C880B990B0E5F1F4F92CF49
:1041D000D32CE894D4F82AE030E0853739F1232D48
:1041E000297FD22E8F3601F148F48835A9F0F701E6
:1041F000868197812B96E2E10C94241D803749F04B
:104200008837A9F7D4FE02C06894D2F820E130E0E4
:104210000DC06894D4F8F6CF34FE03C0822F8660B8
:10422000D82E20E132E002C028E030E0F801D7FECD
:104230000FC060817181828193810C5F1F4FA50146
:104240000E94A721C82ECA183D2CE89437F867CFE2
:104250006081718190E080E00E5F1F4FF0CF42FCE3
:1042600002C0839478CF8394839475CF842D86780D
:1042700009F471CFF6CFB70180E290E00E94772178
:1042800083948214C0F3512C73CF522C581882148B
:1042900008F46ECFF8CF842D867809F47BCF8BE2BB
:1042A00041FE80E247FC8DE2B70190E071CFB7019B
:1042B00080E390E00E9477219A946CCF8FEF9FEF7C
:1042C00099CFFC010590615070400110D8F780959E
:1042D00090958E0F9F1F0895FC01615070400190D2
:1042E0000110D8F7809590958E0F9F1F08950F931A
:1042F0001F93CF93DF93182F092FEB018B8181FD43
:1043000009C01FEF0FEF812F902FDF91CF911F91E9
:104310000F91089582FF14C02E813F818C819D8171
:10432000281739073CF4E881F981CF010196998378
:10433000888310838E819F8101969F838E83E3CF34
:10434000E885F985812F0995892BA1F3DACFFA0148
:10435000AA27283051F1203181F1E8946F936E7FC4
:104360006E5F7F4F8F4F9F4FAF4FB1E03ED0B4E0B5
:104370003CD0670F781F891F9A1FA11D680F791FF6
:104380008A1F911DA11D6A0F711D811D911DA11D07
:1043900020D009F468943F912AE0269F1124301917
:1043A000305D3193DEF6CF010895462F4770405DB2
:1043B0004193B3E00FD0C9F7F6CF462F4F70405D61
:1043C0004A3318F0495D31FD4052419302D0A9F7BC
:1043D000EACFB4E0A6959795879577956795BA95B6
:1043E000C9F700976105710508959B01AC010A2E7C
:1043F00006945795479537952795BA95C9F7620F53
:0E440000731F841F951FA01D0895F894FFCF11
:10440E00000103161C080000000E1517110E000106
:10441E000303030303030100001F1F1F1F00000AF5
:10442E000014002D000500000102030405060731EB
:10443E0032334134353642373839432A302344003B
:10444E0000B1048000000040001400540001007808
:10445E00000100550000000000BE031E034B030BBD
:10446E00047C035A036E03000000001D07F0066073
:10447E0007C606E906D606C706000000001D0A1E7E
:10448E000360071D03000000006501B007FD072053
:10449E00202020202020202020202020202020002E
:1044AE00537568752057203A202020202020DF43A6
:1044BE00005375687520696E3A202020202020DF79
:1044CE0043002E00253032753A25303275002020FB
:1044DE005B4D656D756C61692020205D202000208C
:1044EE0020205B202000205D20202000496E766178
:1044FE006C696400203A003E2020202020004F6B83
:10450E006500434F4F4C494E470054484157494E62
:10451E004700537568752020203A2000447572615B
:10452E007369203A2000206D004D756C616920532F
:10453E00656B6172616E67203F002050524F53458C
:10454E00532053454C455341490048656E74696B81
:10455E00616E2050726F73657320002020205365AA
:10456E006B6172616E67203F2020200050524F53C6
:10457E0045532054455248454E5449004C616E6A8D
:0E458E0075742054686177696E67203F0000E5
:00000001FF
